{
  "address": "0x5B4D751C5520417A69A45116dE290972Ef0F2aaA",
  "abi": [
    {
      "inputs": [
        {
          "internalType": "address",
          "name": "_tokenA",
          "type": "address"
        },
        {
          "internalType": "address",
          "name": "_tokenB",
          "type": "address"
        }
      ],
      "stateMutability": "nonpayable",
      "type": "constructor"
    },
    {
      "inputs": [
        {
          "internalType": "address",
          "name": "owner",
          "type": "address"
        }
      ],
      "name": "OwnableInvalidOwner",
      "type": "error"
    },
    {
      "inputs": [
        {
          "internalType": "address",
          "name": "account",
          "type": "address"
        }
      ],
      "name": "OwnableUnauthorizedAccount",
      "type": "error"
    },
    {
      "anonymous": false,
      "inputs": [
        {
          "indexed": false,
          "internalType": "address",
          "name": "liquidityProvider",
          "type": "address"
        },
        {
          "indexed": false,
          "internalType": "uint256",
          "name": "amountTokenA",
          "type": "uint256"
        },
        {
          "indexed": false,
          "internalType": "uint256",
          "name": "amountTokenB",
          "type": "uint256"
        }
      ],
      "name": "LiquidityAdded",
      "type": "event"
    },
    {
      "anonymous": false,
      "inputs": [
        {
          "indexed": false,
          "internalType": "address",
          "name": "liquidityProvider",
          "type": "address"
        },
        {
          "indexed": false,
          "internalType": "uint256",
          "name": "amountTokenA",
          "type": "uint256"
        },
        {
          "indexed": false,
          "internalType": "uint256",
          "name": "amountTokenB",
          "type": "uint256"
        }
      ],
      "name": "LiquidityRemoved",
      "type": "event"
    },
    {
      "anonymous": false,
      "inputs": [
        {
          "indexed": true,
          "internalType": "address",
          "name": "previousOwner",
          "type": "address"
        },
        {
          "indexed": true,
          "internalType": "address",
          "name": "newOwner",
          "type": "address"
        }
      ],
      "name": "OwnershipTransferred",
      "type": "event"
    },
    {
      "anonymous": false,
      "inputs": [
        {
          "indexed": false,
          "internalType": "address",
          "name": "trader",
          "type": "address"
        },
        {
          "indexed": false,
          "internalType": "uint256",
          "name": "amountTokenA",
          "type": "uint256"
        },
        {
          "indexed": false,
          "internalType": "uint256",
          "name": "amountTokenB",
          "type": "uint256"
        }
      ],
      "name": "SwappedAforB",
      "type": "event"
    },
    {
      "anonymous": false,
      "inputs": [
        {
          "indexed": false,
          "internalType": "address",
          "name": "trader",
          "type": "address"
        },
        {
          "indexed": false,
          "internalType": "uint256",
          "name": "amountTokenB",
          "type": "uint256"
        },
        {
          "indexed": false,
          "internalType": "uint256",
          "name": "amountTokenA",
          "type": "uint256"
        }
      ],
      "name": "SwappedBforA",
      "type": "event"
    },
    {
      "inputs": [
        {
          "internalType": "uint256",
          "name": "amountA",
          "type": "uint256"
        },
        {
          "internalType": "uint256",
          "name": "amountB",
          "type": "uint256"
        }
      ],
      "name": "addLiquidity",
      "outputs": [],
      "stateMutability": "nonpayable",
      "type": "function"
    },
    {
      "inputs": [
        {
          "internalType": "address",
          "name": "_token",
          "type": "address"
        }
      ],
      "name": "getPrice",
      "outputs": [
        {
          "internalType": "uint256",
          "name": "",
          "type": "uint256"
        }
      ],
      "stateMutability": "view",
      "type": "function"
    },
    {
      "inputs": [],
      "name": "owner",
      "outputs": [
        {
          "internalType": "address",
          "name": "",
          "type": "address"
        }
      ],
      "stateMutability": "view",
      "type": "function"
    },
    {
      "inputs": [
        {
          "internalType": "uint256",
          "name": "amountA",
          "type": "uint256"
        },
        {
          "internalType": "uint256",
          "name": "amountB",
          "type": "uint256"
        }
      ],
      "name": "removeLiquidity",
      "outputs": [],
      "stateMutability": "nonpayable",
      "type": "function"
    },
    {
      "inputs": [],
      "name": "renounceOwnership",
      "outputs": [],
      "stateMutability": "nonpayable",
      "type": "function"
    },
    {
      "inputs": [
        {
          "internalType": "uint256",
          "name": "amountAIn",
          "type": "uint256"
        }
      ],
      "name": "swapAforB",
      "outputs": [],
      "stateMutability": "nonpayable",
      "type": "function"
    },
    {
      "inputs": [
        {
          "internalType": "uint256",
          "name": "amountBIn",
          "type": "uint256"
        }
      ],
      "name": "swapBforA",
      "outputs": [],
      "stateMutability": "nonpayable",
      "type": "function"
    },
    {
      "inputs": [
        {
          "internalType": "address",
          "name": "newOwner",
          "type": "address"
        }
      ],
      "name": "transferOwnership",
      "outputs": [],
      "stateMutability": "nonpayable",
      "type": "function"
    }
  ],
  "transactionHash": "0xd486b1b9da0f31000460d5c7f0d1a116352a35f9321ffe2ad7faf02e645741b2",
  "args": [
    "0x85A496E0369E1D54E0D62FF4724C15748e4A1eDA",
    "0x4ea3c4c1D86EF44A0de6E15150780966eeF2F5fd"
  ],
  "numDeployments": 2,
  "solcInputHash": "4017bf1a4ec17afe8a5bcede68b6dd14",
  "bytecode": "0x608060405234801561001057600080fd5b50604051620012d6380380620012d683398101604081905261003191610108565b338061005757604051631e4fbdf760e01b81526000600482015260240160405180910390fd5b6100608161009c565b50600180546001600160a01b039384166001600160a01b031991821617909155600280549290931691161790556000600381905560045561013b565b600080546001600160a01b038381166001600160a01b0319831681178455604051919092169283917f8be0079c531659141344cd1fd0a4f28419497f9722a3daafe3b4186f6b6457e09190a35050565b80516001600160a01b038116811461010357600080fd5b919050565b6000806040838503121561011b57600080fd5b610124836100ec565b9150610132602084016100ec565b90509250929050565b61118b806200014b6000396000f3fe608060405234801561001057600080fd5b50600436106100885760003560e01c80639cd441da1161005b5780639cd441da146100eb5780639d7de6b3146100fe578063e4f1f70a14610111578063f2fde38b1461012457600080fd5b806341976e091461008d578063715018a6146100b35780638014a7aa146100bd5780638da5cb5b146100d0575b600080fd5b6100a061009b366004610e31565b610137565b6040519081526020015b60405180910390f35b6100bb61023c565b005b6100bb6100cb366004610e61565b610250565b6000546040516001600160a01b0390911681526020016100aa565b6100bb6100f9366004610e7a565b61053d565b6100bb61010c366004610e7a565b6107f0565b6100bb61011f366004610e61565b610a95565b6100bb610132366004610e31565b610d76565b60008060035411801561014c57506000600454115b6101715760405162461bcd60e51b815260040161016890610e9c565b60405180910390fd5b6001546001600160a01b038381169116148061019a57506002546001600160a01b038381169116145b6101e65760405162461bcd60e51b815260206004820152601b60248201527f416464726573732064656c20746f6b656e206e6f2076616c69646f00000000006044820152606401610168565b6001546001600160a01b03908116908316036102245760035460045461021490678ac7230489e80000610ef6565b61021e9190610f0d565b92915050565b60045460035461021490678ac7230489e80000610ef6565b610244610db4565b61024e6000610de1565b565b600060035411801561026457506000600454115b6102805760405162461bcd60e51b815260040161016890610e9c565b600254604051636eb1769f60e11b81523360048201523060248201526001600160a01b039091169063dd62ed3e90604401602060405180830381865afa1580156102ce573d6000803e3d6000fd5b505050506040513d601f19601f820116820180604052508101906102f29190610f2f565b8111156103115760405162461bcd60e51b815260040161016890610f48565b6000816004546103219190610fbc565b6004546003546103319190610ef6565b61033b9190610f0d565b6003546103489190610fcf565b9050806003600082825461035c9190610fcf565b9250508190555081600460008282546103759190610fbc565b90915550506002546040516323b872dd60e01b81526001600160a01b03909116906323b872dd906103ae90339030908790600401610fe2565b6020604051808303816000875af11580156103cd573d6000803e3d6000fd5b505050506040513d601f19601f820116820180604052508101906103f19190611006565b61043d5760405162461bcd60e51b815260206004820152601c60248201527f4572726f7220616c207472616e73666572697220746f6b656e732042000000006044820152606401610168565b60015460405163a9059cbb60e01b8152336004820152602481018390526001600160a01b039091169063a9059cbb906044016020604051808303816000875af115801561048e573d6000803e3d6000fd5b505050506040513d601f19601f820116820180604052508101906104b29190611006565b6104fe5760405162461bcd60e51b815260206004820152601c60248201527f4572726f7220616c207472616e73666572697220746f6b656e732041000000006044820152606401610168565b7f0e81b9b8630c784454afb1a49e0e366fdc10b2d1e3c361155dd3b82f1a0dd10b33838360405161053193929190611028565b60405180910390a15050565b610545610db4565b600154604051636eb1769f60e11b81523360048201523060248201526001600160a01b039091169063dd62ed3e90604401602060405180830381865afa158015610593573d6000803e3d6000fd5b505050506040513d601f19601f820116820180604052508101906105b79190610f2f565b8211156105d65760405162461bcd60e51b815260040161016890611049565b600254604051636eb1769f60e11b81523360048201523060248201526001600160a01b039091169063dd62ed3e90604401602060405180830381865afa158015610624573d6000803e3d6000fd5b505050506040513d601f19601f820116820180604052508101906106489190610f2f565b8111156106675760405162461bcd60e51b815260040161016890610f48565b81600360008282546106799190610fbc565b9250508190555080600460008282546106929190610fbc565b90915550506001546040516323b872dd60e01b81526001600160a01b03909116906323b872dd906106cb90339030908790600401610fe2565b6020604051808303816000875af11580156106ea573d6000803e3d6000fd5b505050506040513d601f19601f8201168201806040525081019061070e9190611006565b61072a5760405162461bcd60e51b8152600401610168906110bd565b6002546040516323b872dd60e01b81526001600160a01b03909116906323b872dd9061075e90339030908690600401610fe2565b6020604051808303816000875af115801561077d573d6000803e3d6000fd5b505050506040513d601f19601f820116820180604052508101906107a19190611006565b6107bd5760405162461bcd60e51b815260040161016890611109565b7fac1d76749e5447b7b16f5ab61447e1bd502f3bb4807af3b28e620d1700a6ee4533838360405161053193929190611028565b6107f8610db4565b60035482111561087e5760405162461bcd60e51b8152602060048201526044602482018190527f4e6f2073652070756564652071756974617220756e612063616e746964616420908201527f646520546f6b656e2041206d61796f7220616c20746f74616c20646973706f6e60648201526369626c6560e01b608482015260a401610168565b6004548111156109045760405162461bcd60e51b8152602060048201526044602482018190527f4e6f2073652070756564652071756974617220756e612063616e746964616420908201527f646520546f6b656e2042206d61796f7220616c20746f74616c20646973706f6e60648201526369626c6560e01b608482015260a401610168565b81600360008282546109169190610fcf565b92505081905550806004600082825461092f9190610fcf565b909155505081156109cb5760015460405163a9059cbb60e01b8152336004820152602481018490526001600160a01b039091169063a9059cbb906044016020604051808303816000875af115801561098b573d6000803e3d6000fd5b505050506040513d601f19601f820116820180604052508101906109af9190611006565b6109cb5760405162461bcd60e51b8152600401610168906110bd565b8015610a625760025460405163a9059cbb60e01b8152336004820152602481018390526001600160a01b039091169063a9059cbb906044016020604051808303816000875af1158015610a22573d6000803e3d6000fd5b505050506040513d601f19601f82011682018060405250810190610a469190611006565b610a625760405162461bcd60e51b815260040161016890611109565b7f96cd817c6329656790ef8fba7675405193677d39619571282f5e21f3a98cd05933838360405161053193929190611028565b6000600354118015610aa957506000600454115b610ac55760405162461bcd60e51b815260040161016890610e9c565b600154604051636eb1769f60e11b81523360048201523060248201526001600160a01b039091169063dd62ed3e90604401602060405180830381865afa158015610b13573d6000803e3d6000fd5b505050506040513d601f19601f82011682018060405250810190610b379190610f2f565b811115610b565760405162461bcd60e51b815260040161016890611049565b600081600354610b669190610fbc565b600454600354610b769190610ef6565b610b809190610f0d565b600454610b8d9190610fcf565b90508160036000828254610ba19190610fbc565b925050819055508060046000828254610bba9190610fcf565b90915550506001546040516323b872dd60e01b81526001600160a01b03909116906323b872dd90610bf390339030908790600401610fe2565b6020604051808303816000875af1158015610c12573d6000803e3d6000fd5b505050506040513d601f19601f82011682018060405250810190610c369190611006565b610c825760405162461bcd60e51b815260206004820152601c60248201527f4572726f7220616c207472616e73666572697220746f6b656e732041000000006044820152606401610168565b60025460405163a9059cbb60e01b8152336004820152602481018390526001600160a01b039091169063a9059cbb906044016020604051808303816000875af1158015610cd3573d6000803e3d6000fd5b505050506040513d601f19601f82011682018060405250810190610cf79190611006565b610d435760405162461bcd60e51b815260206004820152601c60248201527f4572726f7220616c207472616e73666572697220746f6b656e732042000000006044820152606401610168565b7fee8b8b30e1356a35c79e81f94972df74c7ed513324311083b00855c3eb4b8abb33838360405161053193929190611028565b610d7e610db4565b6001600160a01b038116610da857604051631e4fbdf760e01b815260006004820152602401610168565b610db181610de1565b50565b6000546001600160a01b0316331461024e5760405163118cdaa760e01b8152336004820152602401610168565b600080546001600160a01b038381166001600160a01b0319831681178455604051919092169283917f8be0079c531659141344cd1fd0a4f28419497f9722a3daafe3b4186f6b6457e09190a35050565b600060208284031215610e4357600080fd5b81356001600160a01b0381168114610e5a57600080fd5b9392505050565b600060208284031215610e7357600080fd5b5035919050565b60008060408385031215610e8d57600080fd5b50508035926020909101359150565b60208082526024908201527f4e6f2068617920746f6b656e7320656e20656c20706f6f6c206465206c69717560408201526334b232bd60e11b606082015260800190565b634e487b7160e01b600052601160045260246000fd5b808202811582820484141761021e5761021e610ee0565b600082610f2a57634e487b7160e01b600052601260045260246000fd5b500490565b600060208284031215610f4157600080fd5b5051919050565b6020808252604e908201527f456c20636f6e747261746f206e6f207469656e65207065726d697469646f207460408201527f72616e73666572697273652061207369206d69736d6f206573612063616e746960608201526d3230b2103232903a37b5b2b7102160911b608082015260a00190565b8082018082111561021e5761021e610ee0565b8181038181111561021e5761021e610ee0565b6001600160a01b039384168152919092166020820152604081019190915260600190565b60006020828403121561101857600080fd5b81518015158114610e5a57600080fd5b6001600160a01b039390931683526020830191909152604082015260600190565b6020808252604e908201527f456c20636f6e747261746f206e6f207469656e65207065726d697469646f207460408201527f72616e73666572697273652061207369206d69736d6f206573612063616e746960608201526d64616420646520746f6b656e204160901b608082015260a00190565b6020808252602c908201527f4572726f7220616c206167726567617220746f6b656e204120616c20706f6f6c60408201526b103232903634b8bab4b232bd60a11b606082015260800190565b6020808252602c908201527f4572726f7220616c206167726567617220746f6b656e204220616c20706f6f6c60408201526b103232903634b8bab4b232bd60a11b60608201526080019056fea264697066735822122078f29caffdbb133cdd234dc22ca67938207c80470b646e13ac892acfe5ddd2a464736f6c63430008160033",
  "devdoc": {
    "errors": {
      "OwnableInvalidOwner(address)": [
        {
          "details": "The owner is not a valid owner account. (eg. `address(0)`)"
        }
      ],
      "OwnableUnauthorizedAccount(address)": [
        {
          "details": "The caller account is not authorized to perform an operation."
        }
      ]
    },
    "kind": "dev",
    "methods": {
      "owner()": {
        "details": "Returns the address of the current owner."
      },
      "renounceOwnership()": {
        "details": "Leaves the contract without owner. It will not be possible to call `onlyOwner` functions. Can only be called by the current owner. NOTE: Renouncing ownership will leave the contract without an owner, thereby disabling any functionality that is only available to the owner."
      },
      "transferOwnership(address)": {
        "details": "Transfers ownership of the contract to a new account (`newOwner`). Can only be called by the current owner."
      }
    },
    "version": 1
  },
  "userdoc": {
    "kind": "user",
    "methods": {},
    "version": 1
  },
  "storageLayout": {
    "storage": [
      {
        "astId": 110,
        "contract": "contracts/SimpleDEX.sol:SimpleDEX",
        "label": "_owner",
        "offset": 0,
        "slot": "0",
        "type": "t_address"
      },
      {
        "astId": 255,
        "contract": "contracts/SimpleDEX.sol:SimpleDEX",
        "label": "tokenA",
        "offset": 0,
        "slot": "1",
        "type": "t_contract(IERC20)77"
      },
      {
        "astId": 258,
        "contract": "contracts/SimpleDEX.sol:SimpleDEX",
        "label": "tokenB",
        "offset": 0,
        "slot": "2",
        "type": "t_contract(IERC20)77"
      },
      {
        "astId": 260,
        "contract": "contracts/SimpleDEX.sol:SimpleDEX",
        "label": "totalAmountTokenA",
        "offset": 0,
        "slot": "3",
        "type": "t_uint256"
      },
      {
        "astId": 262,
        "contract": "contracts/SimpleDEX.sol:SimpleDEX",
        "label": "totalAmountTokenB",
        "offset": 0,
        "slot": "4",
        "type": "t_uint256"
      }
    ],
    "types": {
      "t_address": {
        "encoding": "inplace",
        "label": "address",
        "numberOfBytes": "20"
      },
      "t_contract(IERC20)77": {
        "encoding": "inplace",
        "label": "contract IERC20",
        "numberOfBytes": "20"
      },
      "t_uint256": {
        "encoding": "inplace",
        "label": "uint256",
        "numberOfBytes": "32"
      }
    }
  }
}